{
    "_format": "hh-sol-artifact-1",
    "contractName": "FakePI",
    "sourceName": "contracts/FakePI.sol",
    "abi": [
        {
            "anonymous": false,
            "inputs": [
                {
                    "indexed": false,
                    "internalType": "string",
                    "name": "name",
                    "type": "string"
                },
                {
                    "indexed": false,
                    "internalType": "string",
                    "name": "add",
                    "type": "string"
                },
                {
                    "indexed": false,
                    "internalType": "string",
                    "name": "email",
                    "type": "string"
                },
                {
                    "indexed": false,
                    "internalType": "string",
                    "name": "phone",
                    "type": "string"
                }
            ],
            "name": "RejectDistributor",
            "type": "event"
        },
        {
            "inputs": [],
            "name": "assetCount",
            "outputs": [
                {
                    "internalType": "uint256",
                    "name": "",
                    "type": "uint256"
                }
            ],
            "stateMutability": "view",
            "type": "function",
            "constant": true
        },
        {
            "inputs": [],
            "name": "distributorCount",
            "outputs": [
                {
                    "internalType": "uint256",
                    "name": "",
                    "type": "uint256"
                }
            ],
            "stateMutability": "view",
            "type": "function",
            "constant": true
        },
        {
            "inputs": [
                {
                    "internalType": "string",
                    "name": "name",
                    "type": "string"
                },
                {
                    "internalType": "string",
                    "name": "add",
                    "type": "string"
                },
                {
                    "internalType": "string",
                    "name": "email",
                    "type": "string"
                },
                {
                    "internalType": "string",
                    "name": "phone",
                    "type": "string"
                },
                {
                    "internalType": "string",
                    "name": "aRegion",
                    "type": "string"
                }
            ],
            "name": "insertDistributor",
            "outputs": [
                {
                    "internalType": "bool",
                    "name": "",
                    "type": "bool"
                }
            ],
            "stateMutability": "nonpayable",
            "type": "function"
        },
        {
            "inputs": [
                {
                    "internalType": "uint256",
                    "name": "id",
                    "type": "uint256"
                }
            ],
            "name": "getDistributorbyId",
            "outputs": [
                {
                    "internalType": "string",
                    "name": "",
                    "type": "string"
                },
                {
                    "internalType": "string",
                    "name": "",
                    "type": "string"
                },
                {
                    "internalType": "string",
                    "name": "",
                    "type": "string"
                },
                {
                    "internalType": "string",
                    "name": "",
                    "type": "string"
                }
            ],
            "stateMutability": "view",
            "type": "function",
            "constant": true
        },
        {
            "inputs": [],
            "name": "getAlldistributors",
            "outputs": [
                {
                    "components": [
                        {
                            "internalType": "uint256",
                            "name": "id",
                            "type": "uint256"
                        },
                        {
                            "internalType": "string",
                            "name": "name",
                            "type": "string"
                        },
                        {
                            "internalType": "string",
                            "name": "add",
                            "type": "string"
                        },
                        {
                            "internalType": "string",
                            "name": "email",
                            "type": "string"
                        },
                        {
                            "internalType": "string",
                            "name": "phone",
                            "type": "string"
                        },
                        {
                            "internalType": "string",
                            "name": "assignRegion",
                            "type": "string"
                        }
                    ],
                    "internalType": "struct FakePI.Person[]",
                    "name": "",
                    "type": "tuple[]"
                }
            ],
            "stateMutability": "view",
            "type": "function",
            "constant": true
        },
        {
            "inputs": [
                {
                    "internalType": "uint256",
                    "name": "_amount",
                    "type": "uint256"
                }
            ],
            "name": "balance",
            "outputs": [
                {
                    "internalType": "bool",
                    "name": "",
                    "type": "bool"
                }
            ],
            "stateMutability": "pure",
            "type": "function",
            "constant": true
        },
        {
            "inputs": [
                {
                    "internalType": "string",
                    "name": "companyName",
                    "type": "string"
                },
                {
                    "internalType": "string",
                    "name": "productTitle",
                    "type": "string"
                },
                {
                    "internalType": "string",
                    "name": "description",
                    "type": "string"
                },
                {
                    "internalType": "uint256",
                    "name": "mfgDate",
                    "type": "uint256"
                },
                {
                    "internalType": "uint256",
                    "name": "expDate",
                    "type": "uint256"
                },
                {
                    "internalType": "string",
                    "name": "batchNumber",
                    "type": "string"
                },
                {
                    "internalType": "uint256",
                    "name": "cost",
                    "type": "uint256"
                },
                {
                    "internalType": "uint256",
                    "name": "quantity",
                    "type": "uint256"
                },
                {
                    "internalType": "uint256",
                    "name": "distributorId",
                    "type": "uint256"
                }
            ],
            "name": "createAsset",
            "outputs": [],
            "stateMutability": "nonpayable",
            "type": "function"
        },
        {
            "inputs": [
                {
                    "internalType": "uint256",
                    "name": "i",
                    "type": "uint256"
                }
            ],
            "name": "getItemByUUID",
            "outputs": [
                {
                    "internalType": "uint256",
                    "name": "cost",
                    "type": "uint256"
                },
                {
                    "internalType": "uint256",
                    "name": "quantity",
                    "type": "uint256"
                }
            ],
            "stateMutability": "view",
            "type": "function",
            "constant": true
        },
        {
            "inputs": [
                {
                    "internalType": "address",
                    "name": "owner",
                    "type": "address"
                },
                {
                    "internalType": "uint256",
                    "name": "i",
                    "type": "uint256"
                }
            ],
            "name": "isOwnerOf",
            "outputs": [
                {
                    "internalType": "bool",
                    "name": "",
                    "type": "bool"
                }
            ],
            "stateMutability": "view",
            "type": "function",
            "constant": true
        },
        {
            "inputs": [],
            "name": "getAllAssets",
            "outputs": [
                {
                    "components": [
                        {
                            "internalType": "string",
                            "name": "companyName",
                            "type": "string"
                        },
                        {
                            "internalType": "string",
                            "name": "productTitle",
                            "type": "string"
                        },
                        {
                            "internalType": "string",
                            "name": "description",
                            "type": "string"
                        },
                        {
                            "internalType": "uint256",
                            "name": "mfgDate",
                            "type": "uint256"
                        },
                        {
                            "internalType": "uint256",
                            "name": "expDate",
                            "type": "uint256"
                        },
                        {
                            "internalType": "string",
                            "name": "batchNumber",
                            "type": "string"
                        },
                        {
                            "internalType": "uint256",
                            "name": "cost",
                            "type": "uint256"
                        },
                        {
                            "internalType": "uint256",
                            "name": "quantity",
                            "type": "uint256"
                        },
                        {
                            "internalType": "uint256",
                            "name": "distributorId",
                            "type": "uint256"
                        }
                    ],
                    "internalType": "struct FakePI.Product[]",
                    "name": "",
                    "type": "tuple[]"
                }
            ],
            "stateMutability": "view",
            "type": "function",
            "constant": true
        }
    ],
    "bytecode": "0x60806040526000600155600060025534801561001a57600080fd5b5061206b8061002a6000396000f3fe608060405234801561001057600080fd5b506004361061009e5760003560e01c8063ba1d899511610066578063ba1d89951461015b578063c52463531461018c578063c5b8f772146101aa578063eafe7a74146101da578063fdd0e4d7146101f85761009e565b80632335c346146100a35780632acada4d146100bf5780633ac140e8146100dd57806347bb89f0146100fb5780637fa508431461012b575b600080fd5b6100bd60048036038101906100b8919061122c565b61022b565b005b6100c761039c565b6040516100d49190611590565b60405180910390f35b6100e56106dd565b6040516100f291906115c1565b60405180910390f35b610115600480360381019061011091906115dc565b6106e3565b6040516101229190611624565b60405180910390f35b6101456004803603810190610140919061163f565b610731565b6040516101529190611624565b60405180910390f35b610175600480360381019061017091906115dc565b6108da565b604051610183929190611746565b60405180910390f35b610194610959565b6040516101a191906118d6565b60405180910390f35b6101c460048036038101906101bf9190611956565b610d02565b6040516101d19190611624565b60405180910390f35b6101e2610d7b565b6040516101ef91906115c1565b60405180910390f35b610212600480360381019061020d91906115dc565b610d81565b60405161022294939291906119e0565b60405180910390f35b6040518061012001604052808a81526020018981526020018881526020018781526020018681526020018581526020018481526020018381526020018281525060036000600254815260200190815260200160002060008201518160000190816102959190611c4d565b5060208201518160010190816102ab9190611c4d565b5060408201518160020190816102c19190611c4d565b50606082015181600301556080820151816004015560a08201518160050190816102eb9190611c4d565b5060c0820151816006015560e0820151816007015561010082015181600801559050506001600460003373ffffffffffffffffffffffffffffffffffffffff1673ffffffffffffffffffffffffffffffffffffffff1681526020019081526020016000206000600254815260200190815260200160002060006101000a81548160ff0219169083151502179055506002600081548092919061038c90611d4e565b9190505550505050505050505050565b6060600060025467ffffffffffffffff8111156103bc576103bb6110cb565b5b6040519080825280602002602001820160405280156103f557816020015b6103e261101a565b8152602001906001900390816103da5790505b50905060005b6002548110156106d5576000600360008381526020019081526020016000209050806040518061012001604052908160008201805461043990611a70565b80601f016020809104026020016040519081016040528092919081815260200182805461046590611a70565b80156104b25780601f10610487576101008083540402835291602001916104b2565b820191906000526020600020905b81548152906001019060200180831161049557829003601f168201915b505050505081526020016001820180546104cb90611a70565b80601f01602080910402602001604051908101604052809291908181526020018280546104f790611a70565b80156105445780601f1061051957610100808354040283529160200191610544565b820191906000526020600020905b81548152906001019060200180831161052757829003601f168201915b5050505050815260200160028201805461055d90611a70565b80601f016020809104026020016040519081016040528092919081815260200182805461058990611a70565b80156105d65780601f106105ab576101008083540402835291602001916105d6565b820191906000526020600020905b8154815290600101906020018083116105b957829003601f168201915b50505050508152602001600382015481526020016004820154815260200160058201805461060390611a70565b80601f016020809104026020016040519081016040528092919081815260200182805461062f90611a70565b801561067c5780601f106106515761010080835404028352916020019161067c565b820191906000526020600020905b81548152906001019060200180831161065f57829003601f168201915b5050505050815260200160068201548152602001600782015481526020016008820154815250508383815181106106b6576106b5611d96565b5b60200260200101819052505080806106cd90611d4e565b9150506103fb565b508091505090565b60015481565b600060148210610728576040517f08c379a000000000000000000000000000000000000000000000000000000000815260040161071f90611e37565b60405180910390fd5b60019050919050565b600080600090505b6001548110156107f65760405160200161075290611eae565b6040516020818303038152906040528051906020012060008083815260200190815260200160002060030160405160200161078d9190611f46565b60405160208183030381529060405280519060200120036107e3576040517f08c379a00000000000000000000000000000000000000000000000000000000081526004016107da90611fa9565b60405180910390fd5b80806107ee90611d4e565b915050610739565b506040518060c0016040528060015481526020018781526020018681526020018581526020018481526020018381525060008060015481526020019081526020016000206000820151816000015560208201518160010190816108599190611c4d565b50604082015181600201908161086f9190611c4d565b5060608201518160030190816108859190611c4d565b50608082015181600401908161089b9190611c4d565b5060a08201518160050190816108b19190611c4d565b50905050600160008154809291906108c890611d4e565b91905055506001905095945050505050565b600080600254831115610922576040517f08c379a000000000000000000000000000000000000000000000000000000000815260040161091990612015565b60405180910390fd5b6003600084815260200190815260200160002060060154600360008581526020019081526020016000206007015491509150915091565b6060600060015467ffffffffffffffff811115610979576109786110cb565b5b6040519080825280602002602001820160405280156109b257816020015b61099f611066565b8152602001906001900390816109975790505b50905060005b600154811015610cfa5760008060008381526020019081526020016000209050806040518060c0016040529081600082015481526020016001820180546109fe90611a70565b80601f0160208091040260200160405190810160405280929190818152602001828054610a2a90611a70565b8015610a775780601f10610a4c57610100808354040283529160200191610a77565b820191906000526020600020905b815481529060010190602001808311610a5a57829003601f168201915b50505050508152602001600282018054610a9090611a70565b80601f0160208091040260200160405190810160405280929190818152602001828054610abc90611a70565b8015610b095780601f10610ade57610100808354040283529160200191610b09565b820191906000526020600020905b815481529060010190602001808311610aec57829003601f168201915b50505050508152602001600382018054610b2290611a70565b80601f0160208091040260200160405190810160405280929190818152602001828054610b4e90611a70565b8015610b9b5780601f10610b7057610100808354040283529160200191610b9b565b820191906000526020600020905b815481529060010190602001808311610b7e57829003601f168201915b50505050508152602001600482018054610bb490611a70565b80601f0160208091040260200160405190810160405280929190818152602001828054610be090611a70565b8015610c2d5780601f10610c0257610100808354040283529160200191610c2d565b820191906000526020600020905b815481529060010190602001808311610c1057829003601f168201915b50505050508152602001600582018054610c4690611a70565b80601f0160208091040260200160405190810160405280929190818152602001828054610c7290611a70565b8015610cbf5780601f10610c9457610100808354040283529160200191610cbf565b820191906000526020600020905b815481529060010190602001808311610ca257829003601f168201915b505050505081525050838381518110610cdb57610cda611d96565b5b6020026020010181905250508080610cf290611d4e565b9150506109b8565b508091505090565b6000600460008473ffffffffffffffffffffffffffffffffffffffff1673ffffffffffffffffffffffffffffffffffffffff168152602001908152602001600020600083815260200190815260200160002060009054906101000a900460ff1615610d705760019050610d75565b600090505b92915050565b60025481565b606080606080600080868152602001908152602001600020600101600080878152602001908152602001600020600201600080888152602001908152602001600020600301600080898152602001908152602001600020600401838054610de790611a70565b80601f0160208091040260200160405190810160405280929190818152602001828054610e1390611a70565b8015610e605780601f10610e3557610100808354040283529160200191610e60565b820191906000526020600020905b815481529060010190602001808311610e4357829003601f168201915b50505050509350828054610e7390611a70565b80601f0160208091040260200160405190810160405280929190818152602001828054610e9f90611a70565b8015610eec5780601f10610ec157610100808354040283529160200191610eec565b820191906000526020600020905b815481529060010190602001808311610ecf57829003601f168201915b50505050509250818054610eff90611a70565b80601f0160208091040260200160405190810160405280929190818152602001828054610f2b90611a70565b8015610f785780601f10610f4d57610100808354040283529160200191610f78565b820191906000526020600020905b815481529060010190602001808311610f5b57829003601f168201915b50505050509150808054610f8b90611a70565b80601f0160208091040260200160405190810160405280929190818152602001828054610fb790611a70565b80156110045780601f10610fd957610100808354040283529160200191611004565b820191906000526020600020905b815481529060010190602001808311610fe757829003601f168201915b5050505050905093509350935093509193509193565b6040518061012001604052806060815260200160608152602001606081526020016000815260200160008152602001606081526020016000815260200160008152602001600081525090565b6040518060c001604052806000815260200160608152602001606081526020016060815260200160608152602001606081525090565b6000604051905090565b600080fd5b600080fd5b600080fd5b600080fd5b6000601f19601f8301169050919050565b7f4e487b7100000000000000000000000000000000000000000000000000000000600052604160045260246000fd5b611103826110ba565b810181811067ffffffffffffffff82111715611122576111216110cb565b5b80604052505050565b600061113561109c565b905061114182826110fa565b919050565b600067ffffffffffffffff821115611161576111606110cb565b5b61116a826110ba565b9050602081019050919050565b82818337600083830152505050565b600061119961119484611146565b61112b565b9050828152602081018484840111156111b5576111b46110b5565b5b6111c0848285611177565b509392505050565b600082601f8301126111dd576111dc6110b0565b5b81356111ed848260208601611186565b91505092915050565b6000819050919050565b611209816111f6565b811461121457600080fd5b50565b60008135905061122681611200565b92915050565b60008060008060008060008060006101208a8c03121561124f5761124e6110a6565b5b60008a013567ffffffffffffffff81111561126d5761126c6110ab565b5b6112798c828d016111c8565b99505060208a013567ffffffffffffffff81111561129a576112996110ab565b5b6112a68c828d016111c8565b98505060408a013567ffffffffffffffff8111156112c7576112c66110ab565b5b6112d38c828d016111c8565b97505060606112e48c828d01611217565b96505060806112f58c828d01611217565b95505060a08a013567ffffffffffffffff811115611316576113156110ab565b5b6113228c828d016111c8565b94505060c06113338c828d01611217565b93505060e06113448c828d01611217565b9250506101006113568c828d01611217565b9150509295985092959850929598565b600081519050919050565b600082825260208201905092915050565b6000819050602082019050919050565b600081519050919050565b600082825260208201905092915050565b60005b838110156113cc5780820151818401526020810190506113b1565b60008484015250505050565b60006113e382611392565b6113ed818561139d565b93506113fd8185602086016113ae565b611406816110ba565b840191505092915050565b61141a816111f6565b82525050565b600061012083016000830151848203600086015261143e82826113d8565b9150506020830151848203602086015261145882826113d8565b9150506040830151848203604086015261147282826113d8565b91505060608301516114876060860182611411565b50608083015161149a6080860182611411565b5060a083015184820360a08601526114b282826113d8565b91505060c08301516114c760c0860182611411565b5060e08301516114da60e0860182611411565b506101008301516114ef610100860182611411565b508091505092915050565b60006115068383611420565b905092915050565b6000602082019050919050565b600061152682611366565b6115308185611371565b93508360208202850161154285611382565b8060005b8581101561157e578484038952815161155f85826114fa565b945061156a8361150e565b925060208a01995050600181019050611546565b50829750879550505050505092915050565b600060208201905081810360008301526115aa818461151b565b905092915050565b6115bb816111f6565b82525050565b60006020820190506115d660008301846115b2565b92915050565b6000602082840312156115f2576115f16110a6565b5b600061160084828501611217565b91505092915050565b60008115159050919050565b61161e81611609565b82525050565b60006020820190506116396000830184611615565b92915050565b600080600080600060a0868803121561165b5761165a6110a6565b5b600086013567ffffffffffffffff811115611679576116786110ab565b5b611685888289016111c8565b955050602086013567ffffffffffffffff8111156116a6576116a56110ab565b5b6116b2888289016111c8565b945050604086013567ffffffffffffffff8111156116d3576116d26110ab565b5b6116df888289016111c8565b935050606086013567ffffffffffffffff811115611700576116ff6110ab565b5b61170c888289016111c8565b925050608086013567ffffffffffffffff81111561172d5761172c6110ab565b5b611739888289016111c8565b9150509295509295909350565b600060408201905061175b60008301856115b2565b61176860208301846115b2565b9392505050565b600081519050919050565b600082825260208201905092915050565b6000819050602082019050919050565b600060c0830160008301516117b36000860182611411565b50602083015184820360208601526117cb82826113d8565b915050604083015184820360408601526117e582826113d8565b915050606083015184820360608601526117ff82826113d8565b9150506080830151848203608086015261181982826113d8565b91505060a083015184820360a086015261183382826113d8565b9150508091505092915050565b600061184c838361179b565b905092915050565b6000602082019050919050565b600061186c8261176f565b611876818561177a565b9350836020820285016118888561178b565b8060005b858110156118c457848403895281516118a58582611840565b94506118b083611854565b925060208a0199505060018101905061188c565b50829750879550505050505092915050565b600060208201905081810360008301526118f08184611861565b905092915050565b600073ffffffffffffffffffffffffffffffffffffffff82169050919050565b6000611923826118f8565b9050919050565b61193381611918565b811461193e57600080fd5b50565b6000813590506119508161192a565b92915050565b6000806040838503121561196d5761196c6110a6565b5b600061197b85828601611941565b925050602061198c85828601611217565b9150509250929050565b600082825260208201905092915050565b60006119b282611392565b6119bc8185611996565b93506119cc8185602086016113ae565b6119d5816110ba565b840191505092915050565b600060808201905081810360008301526119fa81876119a7565b90508181036020830152611a0e81866119a7565b90508181036040830152611a2281856119a7565b90508181036060830152611a3681846119a7565b905095945050505050565b7f4e487b7100000000000000000000000000000000000000000000000000000000600052602260045260246000fd5b60006002820490506001821680611a8857607f821691505b602082108103611a9b57611a9a611a41565b5b50919050565b60008190508160005260206000209050919050565b60006020601f8301049050919050565b600082821b905092915050565b600060088302611b037fffffffffffffffffffffffffffffffffffffffffffffffffffffffffffffffff82611ac6565b611b0d8683611ac6565b95508019841693508086168417925050509392505050565b6000819050919050565b6000611b4a611b45611b40846111f6565b611b25565b6111f6565b9050919050565b6000819050919050565b611b6483611b2f565b611b78611b7082611b51565b848454611ad3565b825550505050565b600090565b611b8d611b80565b611b98818484611b5b565b505050565b5b81811015611bbc57611bb1600082611b85565b600181019050611b9e565b5050565b601f821115611c0157611bd281611aa1565b611bdb84611ab6565b81016020851015611bea578190505b611bfe611bf685611ab6565b830182611b9d565b50505b505050565b600082821c905092915050565b6000611c2460001984600802611c06565b1980831691505092915050565b6000611c3d8383611c13565b9150826002028217905092915050565b611c5682611392565b67ffffffffffffffff811115611c6f57611c6e6110cb565b5b611c798254611a70565b611c84828285611bc0565b600060209050601f831160018114611cb75760008415611ca5578287015190505b611caf8582611c31565b865550611d17565b601f198416611cc586611aa1565b60005b82811015611ced57848901518255600182019150602085019450602081019050611cc8565b86831015611d0a5784890151611d06601f891682611c13565b8355505b6001600288020188555050505b505050505050565b7f4e487b7100000000000000000000000000000000000000000000000000000000600052601160045260246000fd5b6000611d59826111f6565b91507fffffffffffffffffffffffffffffffffffffffffffffffffffffffffffffffff8203611d8b57611d8a611d1f565b5b600182019050919050565b7f4e487b7100000000000000000000000000000000000000000000000000000000600052603260045260246000fd5b7f42616c616e6365206e65656420746f2062652067726561746572207468616e2060008201527f3230000000000000000000000000000000000000000000000000000000000000602082015250565b6000611e21602283611996565b9150611e2c82611dc5565b604082019050919050565b60006020820190508181036000830152611e5081611e14565b9050919050565b600081905092915050565b7f31323340676d61696c2e636f6d00000000000000000000000000000000000000600082015250565b6000611e98600d83611e57565b9150611ea382611e62565b600d82019050919050565b6000611eb982611e8b565b9150819050919050565b60008154611ed081611a70565b611eda8186611e57565b94506001821660008114611ef55760018114611f0a57611f3d565b60ff1983168652811515820286019350611f3d565b611f1385611aa1565b60005b83811015611f3557815481890152600182019150602081019050611f16565b838801955050505b50505092915050565b6000611f528284611ec3565b915081905092915050565b7f4469737472696275746f7220616c726561647920657869737473000000000000600082015250565b6000611f93601a83611996565b9150611f9e82611f5d565b602082019050919050565b60006020820190508181036000830152611fc281611f86565b9050919050565b7f417373657420646f6573206e6f74206578697374730000000000000000000000600082015250565b6000611fff601583611996565b915061200a82611fc9565b602082019050919050565b6000602082019050818103600083015261202e81611ff2565b905091905056fea26469706673582212208853440f1c4476fff8496aa6678e92bd434a652af8ee99cee084d9d8209589a564736f6c63430008110033",
    "immutableReferences": {}
}